{
  "contractName": "Crowdsale",
  "abi": [
    {
      "constant": false,
      "inputs": [],
      "name": "renounceOwnership",
      "outputs": [],
      "payable": false,
      "stateMutability": "nonpayable",
      "type": "function"
    },
    {
      "constant": true,
      "inputs": [],
      "name": "owner",
      "outputs": [
        {
          "name": "",
          "type": "address"
        }
      ],
      "payable": false,
      "stateMutability": "view",
      "type": "function"
    },
    {
      "constant": true,
      "inputs": [],
      "name": "whoOwner",
      "outputs": [
        {
          "name": "",
          "type": "address"
        },
        {
          "name": "",
          "type": "address"
        }
      ],
      "payable": false,
      "stateMutability": "view",
      "type": "function"
    },
    {
      "constant": false,
      "inputs": [
        {
          "name": "_newOwner",
          "type": "address"
        }
      ],
      "name": "transferOwnership",
      "outputs": [],
      "payable": false,
      "stateMutability": "nonpayable",
      "type": "function"
    },
    {
      "constant": true,
      "inputs": [],
      "name": "admin",
      "outputs": [
        {
          "name": "",
          "type": "address"
        }
      ],
      "payable": false,
      "stateMutability": "view",
      "type": "function"
    },
    {
      "constant": true,
      "inputs": [],
      "name": "token",
      "outputs": [
        {
          "name": "",
          "type": "address"
        }
      ],
      "payable": false,
      "stateMutability": "view",
      "type": "function"
    },
    {
      "inputs": [
        {
          "name": "_token",
          "type": "address"
        }
      ],
      "payable": false,
      "stateMutability": "nonpayable",
      "type": "constructor"
    },
    {
      "payable": true,
      "stateMutability": "payable",
      "type": "fallback"
    },
    {
      "anonymous": false,
      "inputs": [
        {
          "indexed": false,
          "name": "_bayer",
          "type": "address"
        },
        {
          "indexed": false,
          "name": "_amount",
          "type": "uint256"
        }
      ],
      "name": "Sell",
      "type": "event"
    },
    {
      "anonymous": false,
      "inputs": [
        {
          "indexed": false,
          "name": "_sender",
          "type": "address"
        }
      ],
      "name": "EditIso",
      "type": "event"
    },
    {
      "anonymous": false,
      "inputs": [
        {
          "indexed": true,
          "name": "previousOwner",
          "type": "address"
        }
      ],
      "name": "OwnershipRenounced",
      "type": "event"
    },
    {
      "anonymous": false,
      "inputs": [
        {
          "indexed": true,
          "name": "previousOwner",
          "type": "address"
        },
        {
          "indexed": true,
          "name": "newOwner",
          "type": "address"
        }
      ],
      "name": "OwnershipTransferred",
      "type": "event"
    },
    {
      "constant": false,
      "inputs": [],
      "name": "createTokens",
      "outputs": [],
      "payable": true,
      "stateMutability": "payable",
      "type": "function"
    },
    {
      "constant": false,
      "inputs": [],
      "name": "finishMint",
      "outputs": [],
      "payable": false,
      "stateMutability": "nonpayable",
      "type": "function"
    },
    {
      "constant": true,
      "inputs": [],
      "name": "viewISO",
      "outputs": [
        {
          "name": "",
          "type": "uint256"
        },
        {
          "name": "",
          "type": "address"
        },
        {
          "name": "",
          "type": "uint256"
        },
        {
          "name": "",
          "type": "address"
        },
        {
          "name": "",
          "type": "uint256"
        },
        {
          "name": "",
          "type": "uint256"
        },
        {
          "name": "",
          "type": "uint256"
        }
      ],
      "payable": false,
      "stateMutability": "view",
      "type": "function"
    },
    {
      "constant": false,
      "inputs": [
        {
          "name": "newRate",
          "type": "uint256"
        }
      ],
      "name": "rateEdit",
      "outputs": [],
      "payable": false,
      "stateMutability": "nonpayable",
      "type": "function"
    },
    {
      "constant": false,
      "inputs": [
        {
          "name": "newMultisig",
          "type": "address"
        }
      ],
      "name": "multisigEdit",
      "outputs": [],
      "payable": false,
      "stateMutability": "nonpayable",
      "type": "function"
    },
    {
      "constant": false,
      "inputs": [
        {
          "name": "newHardcap",
          "type": "uint256"
        }
      ],
      "name": "hardcapEdit",
      "outputs": [],
      "payable": false,
      "stateMutability": "nonpayable",
      "type": "function"
    },
    {
      "constant": false,
      "inputs": [
        {
          "name": "newRestricted",
          "type": "address"
        }
      ],
      "name": "restrictedEdit",
      "outputs": [],
      "payable": false,
      "stateMutability": "nonpayable",
      "type": "function"
    },
    {
      "constant": false,
      "inputs": [
        {
          "name": "newRestrictedPercent",
          "type": "uint256"
        }
      ],
      "name": "restrictedPercentEdit",
      "outputs": [],
      "payable": false,
      "stateMutability": "nonpayable",
      "type": "function"
    },
    {
      "constant": false,
      "inputs": [
        {
          "name": "newPeriod",
          "type": "uint256"
        }
      ],
      "name": "upPeriodEdit",
      "outputs": [],
      "payable": false,
      "stateMutability": "nonpayable",
      "type": "function"
    },
    {
      "constant": true,
      "inputs": [],
      "name": "viewBonusTokens",
      "outputs": [
        {
          "name": "",
          "type": "uint256"
        }
      ],
      "payable": false,
      "stateMutability": "view",
      "type": "function"
    }
  ],
  "bytecode": "0x6080604052612710600455635b2c3c00600955603d600a55600a600b556014600c556019600d5534801561003257600080fd5b50604051602080611a5e83398101806040528101908080519060200190929190505050336000806101000a81548173ffffffffffffffffffffffffffffffffffffffff021916908373ffffffffffffffffffffffffffffffffffffffff16021790555033600160006101000a81548173ffffffffffffffffffffffffffffffffffffffff021916908373ffffffffffffffffffffffffffffffffffffffff16021790555033600360006101000a81548173ffffffffffffffffffffffffffffffffffffffff021916908373ffffffffffffffffffffffffffffffffffffffff16021790555080600260006101000a81548173ffffffffffffffffffffffffffffffffffffffff021916908373ffffffffffffffffffffffffffffffffffffffff16021790555073a44f8b54b522b21889496309bac1b42ff43c8e1f600660006101000a81548173ffffffffffffffffffffffffffffffffffffffff021916908373ffffffffffffffffffffffffffffffffffffffff160217905550680ad78ebc5ac620000060058190555073a03d2bf2c49a6be202ae21f541e487687fe008a3600860006101000a81548173ffffffffffffffffffffffffffffffffffffffff021916908373ffffffffffffffffffffffffffffffffffffffff1602179055506032600781905550506118348061022a6000396000f3006080604052600436106100e6576000357c0100000000000000000000000000000000000000000000000000000000900463ffffffff16806306c0820f146100f0578063338493061461011d57806338646dcb14610148578063389edc76146101f55780633ff9a32b146102385780636ce8fb2214610265578063715018a6146102925780638a7e2773146102a95780638da5cb5b146102ec578063ad878db914610343578063b442726314610370578063b5a46d5e1461037a578063e4cc18be14610404578063f2fde38b1461041b578063f851a4401461045e578063fc0c546a146104b5575b6100ee61050c565b005b3480156100fc57600080fd5b5061011b60048036038101908080359060200190929190505050610848565b005b34801561012957600080fd5b50610132610967565b6040518082815260200191505060405180910390f35b34801561015457600080fd5b5061015d6109f3565b604051808881526020018773ffffffffffffffffffffffffffffffffffffffff1673ffffffffffffffffffffffffffffffffffffffff1681526020018681526020018573ffffffffffffffffffffffffffffffffffffffff1673ffffffffffffffffffffffffffffffffffffffff16815260200184815260200183815260200182815260200197505050505050505060405180910390f35b34801561020157600080fd5b50610236600480360381019080803573ffffffffffffffffffffffffffffffffffffffff169060200190929190505050610a6a565b005b34801561024457600080fd5b5061026360048036038101908080359060200190929190505050610bbf565b005b34801561027157600080fd5b5061029060048036038101908080359060200190929190505050610cda565b005b34801561029e57600080fd5b506102a7610df5565b005b3480156102b557600080fd5b506102ea600480360381019080803573ffffffffffffffffffffffffffffffffffffffff169060200190929190505050610f4a565b005b3480156102f857600080fd5b5061030161109f565b604051808273ffffffffffffffffffffffffffffffffffffffff1673ffffffffffffffffffffffffffffffffffffffff16815260200191505060405180910390f35b34801561034f57600080fd5b5061036e600480360381019080803590602001909291905050506110c4565b005b61037861050c565b005b34801561038657600080fd5b5061038f6111df565b604051808373ffffffffffffffffffffffffffffffffffffffff1673ffffffffffffffffffffffffffffffffffffffff1681526020018273ffffffffffffffffffffffffffffffffffffffff1673ffffffffffffffffffffffffffffffffffffffff1681526020019250505060405180910390f35b34801561041057600080fd5b5061041961122f565b005b34801561042757600080fd5b5061045c600480360381019080803573ffffffffffffffffffffffffffffffffffffffff1690602001909291905050506115ba565b005b34801561046a57600080fd5b50610473611674565b604051808273ffffffffffffffffffffffffffffffffffffffff1673ffffffffffffffffffffffffffffffffffffffff16815260200191505060405180910390f35b3480156104c157600080fd5b506104ca61169a565b604051808273ffffffffffffffffffffffffffffffffffffffff1673ffffffffffffffffffffffffffffffffffffffff16815260200191505060405180910390f35b600080600554600660009054906101000a900473ffffffffffffffffffffffffffffffffffffffff1673ffffffffffffffffffffffffffffffffffffffff16311115151561055957600080fd5b60095442118015610574575062015180600a54026009540142105b151561057f57600080fd5b600660009054906101000a900473ffffffffffffffffffffffffffffffffffffffff1673ffffffffffffffffffffffffffffffffffffffff166108fc349081150290604051600060405180830381858888f193505050501580156105e7573d6000803e3d6000fd5b50610617670de0b6b3a7640000610609346004546116c090919063ffffffff16565b6116f890919063ffffffff16565b91506000905062015180600b54026009540142101561064b576106446004836116f890919063ffffffff16565b90506106d3565b62015180600b5402600954014210158015610670575062015180600c54026009540142105b1561069057610689600a836116f890919063ffffffff16565b90506106d2565b62015180600c54026009540142101580156106b5575062015180600d54026009540142105b156106d1576106ce6014836116f890919063ffffffff16565b90505b5b5b80820191507f5e5e995ce3133561afceaa51a9a154d5db228cd7525d34df5185582c18d3df093334604051808373ffffffffffffffffffffffffffffffffffffffff1673ffffffffffffffffffffffffffffffffffffffff1681526020018281526020019250505060405180910390a1600260009054906101000a900473ffffffffffffffffffffffffffffffffffffffff1673ffffffffffffffffffffffffffffffffffffffff166340c10f1933846040518363ffffffff167c0100000000000000000000000000000000000000000000000000000000028152600401808373ffffffffffffffffffffffffffffffffffffffff1673ffffffffffffffffffffffffffffffffffffffff16815260200182815260200192505050602060405180830381600087803b15801561080857600080fd5b505af115801561081c573d6000803e3d6000fd5b505050506040513d602081101561083257600080fd5b8101908080519060200190929190505050505050565b6000809054906101000a900473ffffffffffffffffffffffffffffffffffffffff1673ffffffffffffffffffffffffffffffffffffffff163373ffffffffffffffffffffffffffffffffffffffff1614806108f05750600160009054906101000a900473ffffffffffffffffffffffffffffffffffffffff1673ffffffffffffffffffffffffffffffffffffffff163373ffffffffffffffffffffffffffffffffffffffff16145b156109645780600a5401600a819055507f590d7a1661dce4f9d1a4c7d659d419d9c2a2a5c7024a700bf57796dab5f13fd333604051808273ffffffffffffffffffffffffffffffffffffffff1673ffffffffffffffffffffffffffffffffffffffff16815260200191505060405180910390a15b50565b600062015180600b54026009540142101561098557601990506109f0565b62015180600b54026009540142101580156109aa575062015180600c54026009540142105b156109b857600a90506109f0565b62015180600c54026009540142101580156109dd575062015180600d54026009540142105b156109eb57600590506109f0565b600090505b90565b6000806000806000806000600454600660009054906101000a900473ffffffffffffffffffffffffffffffffffffffff16600554600860009054906101000a900473ffffffffffffffffffffffffffffffffffffffff16600754600954600a54965096509650965096509650965090919293949596565b6000809054906101000a900473ffffffffffffffffffffffffffffffffffffffff1673ffffffffffffffffffffffffffffffffffffffff163373ffffffffffffffffffffffffffffffffffffffff161480610b125750600160009054906101000a900473ffffffffffffffffffffffffffffffffffffffff1673ffffffffffffffffffffffffffffffffffffffff163373ffffffffffffffffffffffffffffffffffffffff16145b15610bbc5780600860006101000a81548173ffffffffffffffffffffffffffffffffffffffff021916908373ffffffffffffffffffffffffffffffffffffffff1602179055507f590d7a1661dce4f9d1a4c7d659d419d9c2a2a5c7024a700bf57796dab5f13fd333604051808273ffffffffffffffffffffffffffffffffffffffff1673ffffffffffffffffffffffffffffffffffffffff16815260200191505060405180910390a15b50565b6000809054906101000a900473ffffffffffffffffffffffffffffffffffffffff1673ffffffffffffffffffffffffffffffffffffffff163373ffffffffffffffffffffffffffffffffffffffff161480610c675750600160009054906101000a900473ffffffffffffffffffffffffffffffffffffffff1673ffffffffffffffffffffffffffffffffffffffff163373ffffffffffffffffffffffffffffffffffffffff16145b15610cd757806004819055507f590d7a1661dce4f9d1a4c7d659d419d9c2a2a5c7024a700bf57796dab5f13fd333604051808273ffffffffffffffffffffffffffffffffffffffff1673ffffffffffffffffffffffffffffffffffffffff16815260200191505060405180910390a15b50565b6000809054906101000a900473ffffffffffffffffffffffffffffffffffffffff1673ffffffffffffffffffffffffffffffffffffffff163373ffffffffffffffffffffffffffffffffffffffff161480610d825750600160009054906101000a900473ffffffffffffffffffffffffffffffffffffffff1673ffffffffffffffffffffffffffffffffffffffff163373ffffffffffffffffffffffffffffffffffffffff16145b15610df257806007819055507f590d7a1661dce4f9d1a4c7d659d419d9c2a2a5c7024a700bf57796dab5f13fd333604051808273ffffffffffffffffffffffffffffffffffffffff1673ffffffffffffffffffffffffffffffffffffffff16815260200191505060405180910390a15b50565b6000809054906101000a900473ffffffffffffffffffffffffffffffffffffffff1673ffffffffffffffffffffffffffffffffffffffff163373ffffffffffffffffffffffffffffffffffffffff161480610e9d5750600160009054906101000a900473ffffffffffffffffffffffffffffffffffffffff1673ffffffffffffffffffffffffffffffffffffffff163373ffffffffffffffffffffffffffffffffffffffff16145b15610f48576000809054906101000a900473ffffffffffffffffffffffffffffffffffffffff1673ffffffffffffffffffffffffffffffffffffffff167ff8df31144d9c2f0f6b59d69b8b98abd5459d07f2742c4df920b25aae33c6482060405160405180910390a260008060006101000a81548173ffffffffffffffffffffffffffffffffffffffff021916908373ffffffffffffffffffffffffffffffffffffffff1602179055505b565b6000809054906101000a900473ffffffffffffffffffffffffffffffffffffffff1673ffffffffffffffffffffffffffffffffffffffff163373ffffffffffffffffffffffffffffffffffffffff161480610ff25750600160009054906101000a900473ffffffffffffffffffffffffffffffffffffffff1673ffffffffffffffffffffffffffffffffffffffff163373ffffffffffffffffffffffffffffffffffffffff16145b1561109c5780600660006101000a81548173ffffffffffffffffffffffffffffffffffffffff021916908373ffffffffffffffffffffffffffffffffffffffff1602179055507f590d7a1661dce4f9d1a4c7d659d419d9c2a2a5c7024a700bf57796dab5f13fd333604051808273ffffffffffffffffffffffffffffffffffffffff1673ffffffffffffffffffffffffffffffffffffffff16815260200191505060405180910390a15b50565b6000809054906101000a900473ffffffffffffffffffffffffffffffffffffffff1681565b6000809054906101000a900473ffffffffffffffffffffffffffffffffffffffff1673ffffffffffffffffffffffffffffffffffffffff163373ffffffffffffffffffffffffffffffffffffffff16148061116c5750600160009054906101000a900473ffffffffffffffffffffffffffffffffffffffff1673ffffffffffffffffffffffffffffffffffffffff163373ffffffffffffffffffffffffffffffffffffffff16145b156111dc57806005819055507f590d7a1661dce4f9d1a4c7d659d419d9c2a2a5c7024a700bf57796dab5f13fd333604051808273ffffffffffffffffffffffffffffffffffffffff1673ffffffffffffffffffffffffffffffffffffffff16815260200191505060405180910390a15b50565b6000806000809054906101000a900473ffffffffffffffffffffffffffffffffffffffff16600160009054906101000a900473ffffffffffffffffffffffffffffffffffffffff16915091509091565b6000806000809054906101000a900473ffffffffffffffffffffffffffffffffffffffff1673ffffffffffffffffffffffffffffffffffffffff163373ffffffffffffffffffffffffffffffffffffffff1614806112da5750600160009054906101000a900473ffffffffffffffffffffffffffffffffffffffff1673ffffffffffffffffffffffffffffffffffffffff163373ffffffffffffffffffffffffffffffffffffffff16145b156115b657600260009054906101000a900473ffffffffffffffffffffffffffffffffffffffff1673ffffffffffffffffffffffffffffffffffffffff166318160ddd6040518163ffffffff167c0100000000000000000000000000000000000000000000000000000000028152600401602060405180830381600087803b15801561136557600080fd5b505af1158015611379573d6000803e3d6000fd5b505050506040513d602081101561138f57600080fd5b810190808051906020019092919050505091506113ce6007546064036113c0600754856116c090919063ffffffff16565b6116f890919063ffffffff16565b9050600260009054906101000a900473ffffffffffffffffffffffffffffffffffffffff1673ffffffffffffffffffffffffffffffffffffffff166340c10f19600860009054906101000a900473ffffffffffffffffffffffffffffffffffffffff16836040518363ffffffff167c0100000000000000000000000000000000000000000000000000000000028152600401808373ffffffffffffffffffffffffffffffffffffffff1673ffffffffffffffffffffffffffffffffffffffff16815260200182815260200192505050602060405180830381600087803b1580156114b757600080fd5b505af11580156114cb573d6000803e3d6000fd5b505050506040513d60208110156114e157600080fd5b810190808051906020019092919050505050600260009054906101000a900473ffffffffffffffffffffffffffffffffffffffff1673ffffffffffffffffffffffffffffffffffffffff16637d64bcb46040518163ffffffff167c0100000000000000000000000000000000000000000000000000000000028152600401602060405180830381600087803b15801561157957600080fd5b505af115801561158d573d6000803e3d6000fd5b505050506040513d60208110156115a357600080fd5b8101908080519060200190929190505050505b5050565b6000809054906101000a900473ffffffffffffffffffffffffffffffffffffffff1673ffffffffffffffffffffffffffffffffffffffff163373ffffffffffffffffffffffffffffffffffffffff1614806116625750600160009054906101000a900473ffffffffffffffffffffffffffffffffffffffff1673ffffffffffffffffffffffffffffffffffffffff163373ffffffffffffffffffffffffffffffffffffffff16145b15611671576116708161170e565b5b50565b600160009054906101000a900473ffffffffffffffffffffffffffffffffffffffff1681565b600260009054906101000a900473ffffffffffffffffffffffffffffffffffffffff1681565b6000808314156116d357600090506116f2565b81830290508183828115156116e457fe5b041415156116ee57fe5b8090505b92915050565b6000818381151561170557fe5b04905092915050565b600073ffffffffffffffffffffffffffffffffffffffff168173ffffffffffffffffffffffffffffffffffffffff161415151561174a57600080fd5b8073ffffffffffffffffffffffffffffffffffffffff166000809054906101000a900473ffffffffffffffffffffffffffffffffffffffff1673ffffffffffffffffffffffffffffffffffffffff167f8be0079c531659141344cd1fd0a4f28419497f9722a3daafe3b4186f6b6457e060405160405180910390a3806000806101000a81548173ffffffffffffffffffffffffffffffffffffffff021916908373ffffffffffffffffffffffffffffffffffffffff160217905550505600a165627a7a7230582079da510883803d717a46ef490ff5b470208c3682179452734b259f3389e642550029",
  "source": "pragma solidity ^0.4.23;\n\nimport \"../token/SimpleTokenCoin.sol\";\nimport \"../common/Ownable.sol\";\nimport \"../common/SafeMath.sol\";\n\ncontract Crowdsale is Ownable {\n    using SafeMath for uint256;\n\n    SimpleTokenCoin public token;\n\n    address owner;\n    \n    uint256 rate = 10000;\n\n    uint hardcap;\n\n    address multisig;\n\n    uint restrictedPercent;\n\n    address restricted;\n\n    uint start = 1529625600; // 22.06.2018\n\n    uint period = 61;\n\n    uint bonusTime1 = 10;\n\n    uint bonusTime2 = 20;\n\n    uint bonusTime3 = 25;\n\n    event Sell (address _bayer, uint _amount);\n    event EditIso (address _sender);\n\n    modifier saleIsOn() {\n    \trequire(now > start && now < start + period * 1 days);\n    \t_;\n    }\n    \n    modifier isUnderHardCap() {\n        require(multisig.balance <= hardcap);\n        _;\n    }\n\n    constructor (SimpleTokenCoin _token) public {\n        owner = msg.sender;\n        token = _token;\n        multisig = 0xA44F8B54B522b21889496309BaC1B42Ff43c8e1F;\n        hardcap = 200 ether;\n        restricted = 0xa03d2BF2c49a6be202AE21f541e487687Fe008a3;\n        restrictedPercent = 50;\n    }\n\n    function () external payable  {\n        createTokens();\n    }\n\n    function createTokens() public isUnderHardCap saleIsOn payable {\n        multisig.transfer(msg.value);\n        uint tokens = rate.mul(msg.value).div(1 ether);\n        uint bonusTokens = 0;\n        if(now < start + (bonusTime1 * 1 days)) {\n          bonusTokens = tokens.div(4);\n        } else if(now >= start + (bonusTime1 * 1 days) && now < start + (bonusTime2 * 1 days)) {\n          bonusTokens = tokens.div(10);\n        } else if(now >= start + (bonusTime2 * 1 days) && now < start + (bonusTime3 * 1 days)) {\n          bonusTokens = tokens.div(20);\n        }\n        tokens += bonusTokens;\n        emit Sell(msg.sender, msg.value);\n        token.mint(msg.sender, tokens);\n        \n    }\n\n    function finishMint() public onlyOwner {\n        uint issuedTokenSupply = token.totalSupply();\n        uint restrictedTokens = issuedTokenSupply.mul(restrictedPercent).div(100 - restrictedPercent);\n        token.mint(restricted, restrictedTokens);\n        token.finishMinting();\n    }\n\n    function viewISO () public view returns (uint256, address, uint, address, uint, uint, uint) {\n        return (rate, multisig, hardcap, restricted, restrictedPercent, start, period);\n    }\n\n    function rateEdit (uint256 newRate) public onlyOwner {\n        rate = newRate;\n        emit EditIso (msg.sender);\n    }\n\n    function multisigEdit (address newMultisig) public onlyOwner {\n        multisig = newMultisig;\n        emit EditIso (msg.sender);\n    }\n\n    function hardcapEdit (uint newHardcap) public onlyOwner {\n        hardcap = newHardcap;\n        emit EditIso (msg.sender);\n    }\n\n    function restrictedEdit (address newRestricted) public onlyOwner {\n        restricted = newRestricted;\n        emit EditIso (msg.sender);\n    }\n\n    function restrictedPercentEdit (uint newRestrictedPercent) public onlyOwner {\n        restrictedPercent = newRestrictedPercent;\n        emit EditIso (msg.sender);\n    }\n\n    function upPeriodEdit (uint newPeriod) public onlyOwner {\n        period = period + newPeriod;\n        emit EditIso (msg.sender);\n    }\n\n    function viewBonusTokens () public view returns(uint) {        \n        if(now < start + (bonusTime1 * 1 days)) {\n            return 25;\n        } else if(now >= start + (bonusTime1 * 1 days) && now < start + (bonusTime2 * 1 days)) {\n            return 10;\n        } else if(now >= start + (bonusTime2 * 1 days) && now < start + (bonusTime3 * 1 days)) {\n            return 5;\n        } else\n        return 0;\n    }\n}\n",
  "sourcePath": "/Users/ilasimonov/iso/contracts/iso/Crowdsale.sol",
  "compiler": {
    "name": "solc",
    "version": "0.4.23+commit.124ca40d.Emscripten.clang"
  },
  "schemaVersion": "2.0.0",
  "updatedAt": "2018-07-06T11:24:05.215Z"
}